:1000000012C02CC02BC02AC029C028C027C026C0BF
:1000100025C024C023C022C021C020C01FC01EC0D4
:100020001DC01CC01BC011241FBECFE5D4E0DEBF25
:10003000CDBF10E0A0E6B0E0E0E0FDE002C005903A
:100040000D92A039B107D9F720E0A0E9B0E001C0D6
:100050001D92A439B207E1F70AD450C6D1CF80E08F
:1000600090E0DDD590E0C9D580E090E0D8D589302A
:1000700010F060E002C061E0680F80E090E0D7C55A
:10008000FC012081FB013081FC013083FB012083D6
:1000900008958CE287BB81ED8DB9089580E187BB1F
:1000A00081EC8DB90895779BFECF8FB10895C298EA
:1000B0008FB9779BFECF613009F4C29A0895CF9330
:1000C000C62F60E0F4DF61E08C2FCF91F0CF0F936B
:1000D0001F93CF93DF93182F062FEA01011748F0E3
:1000E000FE01E10FF11D31976081812FE8DF1F5F75
:1000F000F5CFDF91CF911F910F9108951F93CF936B
:10010000DF93EC0111E06991812FD9DF1F5F193076
:10011000D1F7DF91CF911F91089560E0D0CFCF93B9
:10012000C1E08C2FFADFCF5FC930D9F7CF910895A6
:10013000CF92DF92EF92FF920F931F93CF93DF93B3
:10014000CDB7DEB72A970FB6F894DEBF0FBECDBF8E
:10015000A0DF85E0E6E8F0E0DE01169601900D9262
:100160008A95E1F785E0EBE8F0E0DE011196019079
:100170000D928A95E1F78E010F5F1F4F7E0186E099
:10018000E80EF11C6701F80161918F01F70181917F
:100190007F0195DF0C151D05B1F72A960FB6F8946F
:1001A000DEBF0FBECDBFDF91CF911F910F91FF90AA
:1001B000EF90DF90CF90B3CFEF92FF920F931F930A
:1001C000CF93DF931F92CDB7DEB713D58C0186E0B6
:1001D00090E09ED37C01C80167E070E072D38C018F
:1001E0001127000F111F000F111F005A1F4FD801B8
:1001F0008C91F701808311966C916183862F90E03A
:10020000698386D3D70115969C938E931497698141
:1002100081E075D1F7019583848320E0F701818126
:10022000281780F4822F90E0F801E80FF91F32813F
:10023000D7011496ED91FC911597E80FF91F3083C3
:100240002F5FECCFD6D4D7012C9168E070E0621B11
:10025000710937D3F701828381E08383C7010F904F
:10026000DF91CF911F910F91FF90EF900895CF9361
:10027000DF93FC013381232F522F531BA22FB0E0B9
:100280004381818190E0840F911DA817B907A4F4E0
:100290001197A60FB71FC481D581C50FD11D8881C5
:1002A00090E0028002C0880F991F0A94E2F79C91A7
:1002B000982B9C932F5FE0CFDF91CF910895CF9340
:1002C000DF93DC0113965C91139711964C91119773
:1002D000450F80E090E0E52FE80FE417C8F4F0E068
:1002E0003197E60FF71F1496CD91DC911597C80F43
:1002F000D91F288130E012960C90129702C0220F6D
:10030000331F0A94E2F73081322730830196E3CF1E
:10031000DF91CF910895DF92EF92FF920F931F9399
:10032000CF93DF93FC0113810181D02ED10E20E009
:1003300030E0822F912F920F9D1530F5A481B58169
:10034000EE24E394E20EF280ED01C20FD31F488148
:100350000F2C01C0440F0A94EAF7D42FE01640F4A2
:10036000AE0DB11DCC9101C0CC0FFA94EAF701C0DB
:10037000C0E02F5F3F4FDB01A90FB11D9C919C1B7B
:10038000942394279D17A8F6DF91CF911F910F9189
:10039000FF90EF90DF900895FF920F931F93CF93FC
:1003A000DF93EC018B01F980B6DF8F110BC09B81CD
:1003B000980F993038F4B801CE0181DF8B818F5FBF
:1003C0008B830FC0F8018081882321F088E011928F
:1003D0008A95E9F78C819D8133D3CE0131D3ECDE50
:1003E000EC01B801CE0143DFC80188DECE01DF9108
:1003F000CF911F910F91FF9008950F931F93CF936B
:10040000DF93EC018B019A818881890F80990DC05F
:10041000992359F0CE0153DF83E294EF0197F1F76E
:1004200000C000008A81815010C090B3883070F401
:1004300091FD0CC0B801CE0142DF83E294EF019739
:10044000F1F700C000008A818F5F8A83B801CE0176
:100450000EDFC801DF91CF911F910F914FCEAF9268
:10046000BF92CF92DF92EF92FF920F931F93CF93A1
:10047000DF931F92CDB7DEB75C018B0120DFF50162
:10048000408161818481958165D06C01F501618134
:10049000808135D0F50140816181C6015AD17C014E
:1004A000B5016F5F7F4FC501EBDDF501848195815B
:1004B000C7D2F5016181862F90E0698329D2F501C9
:1004C0009583848340816981C70191D1F50195832A
:1004D0008483C601B5D2C70133D0B801C501C7DED8
:1004E000C8010CDEC5010F90DF91CF911F910F91D4
:1004F000FF90EF90DF90CF90BF90AF9008950F9353
:100500001F93CF93DF93C82FD62F90E0880F991FAA
:10051000FFD18C01CD9FC0011124FAD16D2F70E065
:10052000F80140E04C1731F0819391934F5F860FB3
:10053000971FF8CFC801DF91CF911F910F910895B8
:10054000CF93DF93EC01888199817AD2CE01DF913C
:10055000CF9176C28F929F92AF92BF92CF92DF924D
:10056000EF92FF920F931F93CF93DF938C01E62EB0
:10057000F12CC42FD0E0649FC0011124C9D1AC017B
:1005800060E070E0AA24A394B12C6E157F051CF5E1
:10059000DA0120E030E06801C60ED71E2C173D07B7
:1005A000ACF44501022E01C0880C0A94EAF7F6016A
:1005B00090809820E92DF0E0022E02C0F595E79595
:1005C0000A94E2F7ED932F5F3F4FE8CF6F5F7F4FC5
:1005D0004C0F5D1FDACFDF91CF911F910F91FF90EC
:1005E000EF90DF90CF90BF90AF909F908F90089545
:1005F0006F927F928F929F92BF92CF92DF92EF92F3
:10060000FF920F931F93CF93DF931F92CDB7DEB767
:100610006C01B62E642F8B2D498371DF4C0150E0A5
:10062000EB2CF12C49815B1509F1612C712CA0E0B8
:10063000B0E0252F30E02E193F092C0D3D1D6E0C2A
:100640007F1CA41770F48901060D171DF801608145
:10065000F401008111810A0F1B1FF80160831196BC
:10066000EECF5F5FF2E08F0E911CDDCF0F90DF9138
:10067000CF911F910F91FF90EF90DF90CF90BF909F
:100680009F908F907F906F9008954F925F926F929E
:100690007F929F92AF92BF92CF92DF92EF92FF92A2
:1006A0000F931F93CF93DF931F92CDB7DEB76C01EB
:1006B000962E642F892D498322DF3C01E92CF12CF1
:1006C0008701000F111F4981242F30E0215031098B
:1006D0002E9DB0012F9D700D3E9D700D1124060FB3
:1006E000171F50E0591521F12801451A51084C0CEB
:1006F0005D1CA0E0B0E020E030E0AE19BF09241797
:1007000090F45201AA0EBB1E61E0A61AB108F501D1
:100710006081F301A080B180A20EB31EF501608359
:100720002F5F3F4FEACF5F5FF2E06F0E711CDACFB1
:100730000F90DF91CF911F910F91FF90EF90DF907D
:10074000CF90BF90AF909F907F906F905F904F90B1
:1007500008954F925F926F927F929F92AF92BF9255
:10076000CF92DF92EF92FF920F931F93CF93DF937D
:100770001F92CDB7DEB78C01962E842F4983BFDE42
:100780004981A42EB12C9801E0E0F0E0492C512CD5
:1007900051E0451A5108E915C8F43C01790150E0CF
:1007A0006201CE1ADF0A541769F0D3010D911D9131
:1007B0003D01D7016D917D010C0D1D1DD8016C937C
:1007C0005F5FF1CF31962A0D3B1DE5CF0F90DF9192
:1007D000CF911F910F91FF90EF90DF90CF90BF903E
:1007E000AF909F907F906F905F904F900895CF92C1
:1007F000DF92EF92FF920F931F93CF93DF936C01E1
:10080000F62EE42EC62FD0E0CE0182D0182F092F6D
:10081000AE0160E070E0FCD1912FD601E12FF02F06
:100820008E2F891B8F15C0F420E030E02E1588F440
:10083000CD91DC911197C20FD31FC881022E01C048
:10084000CC0F0A94EAF780818C0F80832F5F3F4F93
:10085000EDCF31961296E4CF812F902FDF91CF917B
:100860001F910F91FF90EF90DF90CF900895CF935D
:10087000DF93CDB7DEB728970FB6F894DEBF0FBE73
:10088000CDBF56DCECDB11BA87E082BB8E010F5F77
:100890001F4F88E0F80111928A95E9F78DDC7C0101
:1008A000B801E5DCC8012ADC8299FECFB801C70196
:1008B000D6DD7C0183E294EF0197F1F700C00000E0
:1008C000F3CF97FB072E16F4009406D077FD08D0DF
:1008D0000BD007FC05D03EF4909581959F4F08956D
:1008E000709561957F4F0895AA1BBB1B51E107C00E
:1008F000AA1FBB1FA617B70710F0A61BB70B881FB0
:10090000991F5A95A9F780959095BC01CD0108953E
:10091000CF93DF938230910510F482E090E0E09174
:100920009200F091930020E030E0A0E0B0E030973A
:1009300039F14081518148175907B8F048175907D4
:1009400071F482819381109729F013969C938E9372
:1009500012972CC0909393008093920027C021158A
:10096000310531F04217530718F0A901DB0101C02E
:10097000EF019A01BD01DF010280F381E02DD7CFA5
:1009800021153105F9F0281B390B2430310580F48D
:100990008A819B816115710521F0FB01938382831C
:1009A00004C09093930080939200FE01329644C05D
:1009B000FE01E20FF31F8193919322503109398395
:1009C00028833AC02091900030919100232B41F46C
:1009D00020917E0030917F00309391002093900011
:1009E00020917C0030917D002115310541F42DB717
:1009F0003EB74091800050918100241B350BE0915F
:100A00009000F0919100E217F307A0F42E1B3F0B2A
:100A10002817390778F0AC014E5F5F4F2417350770
:100A200048F04E0F5F1F50939100409390008193C8
:100A3000919302C0E0E0F0E0CF01DF91CF91089503
:100A4000CF93DF93009709F487C0FC01329713829C
:100A50001282C0919200D0919300209781F420815E
:100A60003181280F391F8091900090919100821759
:100A7000930779F5F0939100E09390006DC0DE014B
:100A800020E030E0AE17BF0750F412964D915C9114
:100A900013979D014115510509F1DA01F3CFB38395
:100AA000A28340815181840F951F8A179B0771F49F
:100AB0008D919C911197840F951F0296918380834D
:100AC00012968D919C911397938382832115310502
:100AD00029F4F0939300E09392003EC0D90113965D
:100AE000FC93EE9312974D915D91A40FB51FEA17F9
:100AF000FB0779F480819181840F951F0296D901BB
:100B000011969C938E938281938113969C938E93DE
:100B10001297E0E0F0E08A819B81009719F0FE01D6
:100B2000EC01F9CFCE01029628813981820F931F03
:100B300020919000309191002817390769F430977F
:100B400029F4109293001092920002C01382128234
:100B5000D0939100C0939000DF91CF9108958F9230
:100B60009F92AF92BF92CF92DF92EF92FF92CF937C
:100B7000DF93EC01688179818A819B816115710520
:100B80008105910521F464E279ED8BE597E02DE193
:100B900033EF41E050E058D049015A019B01AC01CC
:100BA000A7EAB1E46DD06B017C01ACEEB4EFA50116
:100BB000940172D0C60ED71EE81EF91EF7FE06C0BD
:100BC00081E0C81AD108E10880E8F80AC882D98211
:100BD000EA82FB82C6019F77DF91CF91FF90EF9071
:100BE000DF90CF90BF90AF909F908F900895B7DF28
:100BF000089582E890E0B3DF0895A0E0B0E080932C
:100C0000820090938300A0938400B09385000895A0
:100C1000DC0101C06D9341505040E0F70895E19927
:100C2000FECF9FBB8EBBE09A99278DB30895262FE8
:100C3000E199FECF9FBB8EBB2DBB0FB6F894E29A15
:100C4000E19A0FBE01960895052E97FB16F40094C5
:100C50000FD057FD05D024D007FC02D046F408C0C1
:100C600050954095309521953F4F4F4F5F4F0895D8
:100C700090958095709561957F4F8F4F9F4F089508
:100C800031D0A59F900DB49F900DA49F800D911D14
:100C900011240895B7FFF4CFF3DF821B930B08955F
:100CA000A1E21A2EAA1BBB1BFD010DC0AA1FBB1F70
:100CB000EE1FFF1FA217B307E407F50720F0A21BE2
:100CC000B30BE40BF50B661F771F881F991F1A944F
:100CD00069F760957095809590959B01AC01BD0179
:100CE000CF010895A29FB001B39FC001A39F01D07F
:100CF000B29F700D811D1124911D0895F894FFCFAE
:100D000004010F00030201070302040702020303A8
:100D10000302060303020207030203060000940015
:100D2000200001000000090A0B0C0F000F07010052
:00000001FF
