:1000000012C02CC02BC02AC029C028C027C026C0BF
:1000100025C024C023C022C021C020C01FC01EC0D4
:100020001DC01CC01BC011241FBECFE5D4E0DEBF25
:10003000CDBF10E0A0E6B0E0E4E4FEE002C0059031
:100040000D92A039B107D9F720E0A0E9B0E001C0D6
:100050001D92A439B207E1F7A9D3F2C6D1CF80E04F
:1000600090E048D690E068D580E090E043D68930B3
:1000700010F060E002C061E0680F80E090E042C6EE
:10008000FC012081FB013081FC013083FB012083D6
:1000900008958CE287BB81ED8DB9089580E187BB1F
:1000A00081EC8DB90895779BFECF8FB10895C298EA
:1000B0008FB9779BFECF613009F4C29A0895CF9330
:1000C000C62F60E0F4DF61E08C2FCF91F0CF0F936B
:1000D0001F93CF93DF93182F062FEA01011748F0E3
:1000E000FE01E10FF11D31976081812FE8DF1F5F75
:1000F000F5CFDF91CF911F910F9108951F93CF936B
:10010000DF93EC0111E06991812FD9DF1F5F193076
:10011000D1F7DF91CF911F91089560E0D0CFCF93B9
:10012000C1E08C2FFADFCF5FC930D9F7CF910895A6
:10013000CF92DF92EF92FF920F931F93CF93DF93B3
:10014000CDB7DEB72A970FB6F894DEBF0FBECDBF8E
:10015000A0DF85E0E6E8F0E0DE01169601900D9262
:100160008A95E1F785E0EBE8F0E0DE011196019079
:100170000D928A95E1F78E010F5F1F4F7E0186E099
:10018000E80EF11C6701F80161918F01F70181917F
:100190007F0195DF0C151D05B1F72A960FB6F8946F
:1001A000DEBF0FBECDBFDF91CF911F910F91FF90AA
:1001B000EF90DF90CF90B3CF0F931F93CF93DF9348
:1001C000B7D48C0186E090E042D3EC01C80167E02F
:1001D00070E016D38C011127000F111F000F111FA3
:1001E000005A1F4FF801808188838181898390E0C4
:1001F0002ED39D838C8320E08981281768F4822F79
:1002000090E0F801E80FF91F3281EC81FD81E80FE1
:10021000F91F30832F5FF0CF8BD4288168E070E026
:10022000621B7109EDD28A8381E08B83CE01DF915D
:10023000CF911F910F910895CF93DF93FC013381EC
:10024000232F522F531BA22FB0E04381818190E0D6
:10025000840F911DA817B907A4F41197A60FB71F13
:10026000C481D581C50FD11D888190E0028002C074
:10027000880F991F0A94E2F79C91982B9C932F5F0B
:10028000E0CFDF91CF910895CF93DF93DC011396F8
:100290005C91139711964C911197450F80E090E077
:1002A000E52FE80FE417C8F4F0E03197E60FF71FE9
:1002B0001496CD91DC911597C80FD91F288130E095
:1002C00012960C90129702C0220F331F0A94E2F785
:1002D0003081322730830196E3CFDF91CF910895AB
:1002E000DF92EF92FF920F931F93CF93DF93FC0166
:1002F00013810181D02ED10E20E030E0822F912F8A
:10030000920F9D1530F5A481B581EE24E394E20EA1
:10031000F280ED01C20FD31F48810F2C01C0440FA2
:100320000A94EAF7D42FE01640F4AE0DB11DCC913B
:1003300001C0CC0FFA94EAF701C0C0E02F5F3F4F35
:10034000DB01A90FB11D9C919C1B942394279D1741
:10035000A8F6DF91CF911F910F91FF90EF90DF9062
:100360000895FF920F931F93CF93DF93EC018B01BE
:10037000F980B6DF8F110BC09B81980F993038F44C
:10038000B801CE0181DF8B818F5F8B830FC0F801B5
:100390008081882321F088E011928A95E9F78C8189
:1003A0009D81EDD2CE01EBD207DFEC01B801CE0189
:1003B00043DFC801A3DECE01DF91CF911F910F91E2
:1003C000FF9008950F931F93CF93DF93EC018B0160
:1003D0009A818881890F80990DC0992359F0CE01A7
:1003E00053DF83E294EF0197F1F700C000008A81A8
:1003F000815010C090B3883070F491FD0CC0B801EA
:10040000CE0142DF83E294EF0197F1F700C00000D4
:100410008A818F5F8A83B801CE010EDFC801DF9128
:10042000CF911F910F916ACECF92DF92EF92FF9200
:100430000F931F93CF93DF93EC018B0125DF48814E
:1004400069818C819D812AD06C014881698126D186
:100450007C01BE016F5F7F4FCE0112DE698170E0CB
:100460008C819D8174D39D838C8348816981C70170
:100470005BD19D838C83C60182D2C70180D2B80133
:10048000CE01DADEC8013ADECE01DF91CF911F91B5
:100490000F91FF90EF90DF90CF9008958F929F92F1
:1004A000AF92BF92CF92DF92EF92FF920F931F9382
:1004B000CF93DF938C01E62EF12CC42FD0E0649F04
:1004C000C0011124C4D1AC0160E070E0AA24A3945F
:1004D000B12C6E157F051CF5DA0120E030E06801D3
:1004E000C60ED71E2C173D07ACF44501022E01C0E5
:1004F000880C0A94EAF7F60190809820E92DF0E044
:10050000022E02C0F595E7950A94E2F7ED932F5F6E
:100510003F4FE8CF6F5F7F4F4C0F5D1FDACFDF910A
:10052000CF911F910F91FF90EF90DF90CF90BF90F0
:10053000AF909F908F9008956F927F928F929F922D
:10054000AF92BF92CF92DF92EF92FF920F931F93E1
:10055000CF93DF9300D0CDB7DEB77C01649FC0019D
:1005600011244A83698373D14A81C42ED12C4C0152
:1005700050E06981662E712C5617E1F08401A0E0ED
:10058000B0E070E0252F30E0261937092E0D3F1D11
:10059000A60DB71D741751F05901AA0EBB1EF50127
:1005A000B080F801B1928F017F5FF2CF5F5F8C0C5A
:1005B0009D1CE2CF0F900F90DF91CF911F910F9173
:1005C000FF90EF90DF90CF90BF90AF909F908F9073
:1005D0007F906F9008954F925F926F927F928F926B
:1005E0009F92AF92BF92CF92DF92EF92FF920F93C2
:1005F0001F93CF93DF9300D0CDB7DEB76C01649F1C
:10060000C00111244A83698322D14A81842E912C0E
:100610009C016981062F10E02801440C551CD4016F
:100620001197A09FF001A19FF00DB09FF00D112434
:100630004E0E5F1E50E05617F1F0D201A51BB10916
:10064000AC0DBD1D5901612C712C70E0601A710A4E
:10065000741769F07D01E60CF71CE1E0EE1AF10871
:10066000F701F080F501F1925F017F5FEFCF5F5FEF
:10067000280D391DE0CF0F900F90DF91CF911F9182
:100680000F91FF90EF90DF90CF90BF90AF909F9031
:100690008F907F906F905F904F9008958F929F9270
:1006A000BF92CF92DF92EF92FF920F931F93CF935F
:1006B000DF9300D0CDB7DEB78C01649FC001112459
:1006C0004A836983C4D04A81E42EF12C980150E01A
:1006D0006981C62ED12C5617C9F04901E0E0F0E03F
:1006E00070E08C01051B1109EC0DFD1D741751F014
:1006F000D401BD904D01D801AE0FBF1F1197BC9220
:100700007F5FF2CF5F5F2E0D3F1DE5CF0F900F9003
:10071000DF91CF911F910F91FF90EF90DF90CF90DD
:10072000BF909F908F900895AF92BF92CF92DF922B
:10073000EF92FF920F931F93CF93DF935C01D62E1E
:10074000C42E062F10E0C80182D0EC01A80160E0A1
:1007500070E0C9D2EC2CF12C950150E05D15D1F080
:100760008901E0E0F0E0BE01650F711DEC1570F449
:10077000D8018D918D010E2E01C0880F0A94EAF7E1
:10078000DB019C91980F9C933196F0CF5F5F2E0D0B
:100790003F1DE4CFCE01DF91CF911F910F91FF90CC
:1007A000EF90DF90CF90BF90AF900895CF93DF93FD
:1007B000CDB7DEB728970FB6F894DEBF0FBECDBF1A
:1007C000B7DC4DDC11BA87E082BB8E010F5F1F4F93
:1007D00088E0F80111928A95E9F7EEDC7C01B80116
:1007E0002BDDC8018BDC8299FECFB801C7011CDE6E
:1007F0007C0183E294EF0197F1F700C00000F3CF92
:1008000097FB072E16F4009406D077FD08D00BD086
:1008100007FC05D03EF4909581959F4F0895709503
:1008200061957F4F0895AA1BBB1B51E107C0AA1F0A
:10083000BB1FA617B70710F0A61BB70B881F991F81
:100840005A95A9F780959095BC01CD010895CF9355
:10085000DF938230910510F482E090E0E091920005
:10086000F091930020E030E0A0E0B0E0309739F163
:100870004081518148175907B8F04817590771F45A
:1008800082819381109729F013969C938E931297EF
:100890002CC0909393008093920027C021153105BE
:1008A00031F04217530718F0A901DB0101C0EF0135
:1008B0009A01BD01DF010280F381E02DD7CF211520
:1008C0003105F9F0281B390B2430310580F48A8179
:1008D0009B816115710521F0FB019383828304C024
:1008E0009093930080939200FE01329644C0FE01E3
:1008F000E20FF31F819391932250310939832883AA
:100900003AC02091900030919100232B41F4209126
:100910007E0030917F0030939100209390002091D1
:100920007C0030917D002115310541F42DB73EB793
:100930004091800050918100241B350BE091900084
:10094000F0919100E217F307A0F42E1B3F0B28173C
:10095000390778F0AC014E5F5F4F2417350748F038
:100960004E0F5F1F5093910040939000819391939D
:1009700002C0E0E0F0E0CF01DF91CF910895CF9386
:10098000DF93009709F487C0FC013297138212822B
:10099000C0919200D0919300209781F42081318101
:1009A000280F391F80919000909191008217930732
:1009B00079F5F0939100E09390006DC0DE0120E0A6
:1009C00030E0AE17BF0750F412964D915C9113972B
:1009D0009D014115510509F1DA01F3CFB383A283DB
:1009E00040815181840F951F8A179B0771F48D9167
:1009F0009C911197840F951F029691838083129684
:100A00008D919C911397938382832115310529F44D
:100A1000F0939300E09392003EC0D9011396FC93AB
:100A2000EE9312974D915D91A40FB51FEA17FB0746
:100A300079F480819181840F951F0296D9011196D6
:100A40009C938E938281938113969C938E9312979D
:100A5000E0E0F0E08A819B81009719F0FE01EC0153
:100A6000F9CFCE01029628813981820F931F209100
:100A70009000309191002817390769F4309729F4D4
:100A8000109293001092920002C013821282D093AF
:100A90009100C0939000DF91CF9108958F929F9223
:100AA000AF92BF92CF92DF92EF92FF92CF93DF93FC
:100AB000EC01688179818A819B81611571058105CD
:100AC000910521F464E279ED8BE597E02DE133EFB8
:100AD00041E050E024D149015A019B01AC01A7EA51
:100AE000B1E439D16B017C01ACEEB4EFA501940106
:100AF0003ED1C60ED71EE81EF91EF7FE06C081E0E5
:100B0000C81AD108E10880E8F80AC882D982EA82C6
:100B1000FB82C6019F77DF91CF91FF90EF90DF902E
:100B2000CF90BF90AF909F908F900895B7DF0895BA
:100B300082E890E0B3DF0895A0E0B0E08093820007
:100B400090938300A0938400B09385000895A0E063
:100B5000B0E0ECEAF5E013C1EC01CB01209711F411
:100B600076DEB4C0FE01E60FF71F9E012250310968
:100B7000E217F30708F4A8C0D9010D911C91119751
:100B800006171707B0F00530110508F49BC0A8013F
:100B9000445051094617570708F494C002501109F0
:100BA000061B170B019311936D937C93CF01E7DE26
:100BB00089C05B01A01AB10A4E01800E911EA0915E
:100BC0009200B0919300612C712C60E070E010975E
:100BD00009F449C0A815B905C9F5ED90FC90119725
:100BE000670142E0C40ED11CCA14DB0478F147014E
:100BF0008A189B08640142E0C40ED11C1296BC9076
:100C000012971396AC91B5E0CB16D10440F0B282A6
:100C1000A38391828082D9018D939C9309C00E5F3A
:100C20001F4F0E0D1F1DF90111830083EB2DFA2FAD
:100C30006115710531F0DB011396FC93EE93129769
:100C400041C0F0939300E09392003CC06D917C9181
:100C500011976616770608F43B01BD0112960D90B8
:100C6000BC91A02DB4CF6091900070919100681557
:100C70007905E9F468167906D0F440917C0050912A
:100C80007D004115510541F44DB75EB7609180007C
:100C900070918100461B570BE417F507A8F4F093F9
:100CA0009100E0939000F901918380830BC0CFDD28
:100CB0007C01009749F0A801BE010CD0CE015FDE97
:100CC000C70104C0CE0102C080E090E0CDB7DEB71E
:100CD000EEE071C0FB01DC0102C001900D924150B9
:100CE0005040D8F70895DC0101C06D934150504049
:100CF000E0F70895E199FECF9FBB8EBBE09A99275C
:100D00008DB30895262FE199FECF9FBB8EBB2DBBDF
:100D10000FB6F894E29AE19A0FBE01960895052E57
:100D200097FB16F400940FD057FD05D05BD007FC5D
:100D300002D046F408C050954095309521953F4F1C
:100D40004F4F5F4F089590958095709561957F4FB7
:100D50008F4F9F4F089568D0A59F900DB49F900D21
:100D6000A49F800D911D11240895B7FFF4CFF3DFE8
:100D7000821B930B08952F923F924F925F926F9236
:100D80007F928F929F92AF92BF92CF92DF92EF921B
:100D9000FF920F931F93CF93DF93CDB7DEB7CA1B9C
:100DA000DB0B0FB6F894DEBF0FBECDBF09942A88C7
:100DB000398848885F846E847D848C849B84AA846F
:100DC000B984C884DF80EE80FD800C811B81AA81FC
:100DD000B981CE0FD11D0FB6F894DEBF0FBECDBFC7
:100DE000ED010895A1E21A2EAA1BBB1BFD010DC047
:100DF000AA1FBB1FEE1FFF1FA217B307E407F507CB
:100E000020F0A21BB30BE40BF50B661F771F881FA6
:100E1000991F1A9469F760957095809590959B013C
:100E2000AC01BD01CF010895A29FB001B39FC001E5
:100E3000A39F01D0B29F700D811D1124911D0895B3
:040E4000F894FFCF54
:100E440004010F0003020107030204070202030363
:100E540003020603030202070302030600009400D0
:100E6400200001000000090A0B0C0F000F0701000D
:00000001FF
