:1000000012C024C023C022C021C020C01FC01EC0F7
:100010001DC01CC01BC01AC019C018C017C016C014
:1000200015C014C013C011241FBECFE5D4E0DEBF3D
:10003000CDBF10E0A0E6B0E0E0E5F3E002C005903F
:100040000D92A23AB107D9F757D180C1D9CF8CE22E
:1000500087BB81ED8DB9089580E187BB81EC8DB9B7
:100060000895779BFECF8FB10895C2988FB9779B83
:10007000FECF613009F4C29A0895CF93C62F60E095
:10008000F4DF61E08C2FCF91F0CF0F931F93CF93CC
:10009000DF93182F062FEA01011748F0FE01E10F48
:1000A000F11D31976081812FE8DF1F5FF5CFDF9170
:1000B000CF911F910F9108951F93CF93DF93EC0180
:1000C00011E06991812FD9DF1F5F1930D1F7DF91DE
:1000D000CF911F91089560E0D0CFCF93C1E08C2FD6
:1000E000FADFCF5FC930D9F7CF910895CF92DF9271
:1000F000EF92FF920F931F93CF93DF93CDB7DEB7AD
:100100002A970FB6F894DEBF0FBECDBFA0DF85E003
:10011000E7E9F0E0DE01169601900D928A95E1F78D
:1001200085E0ECE9F0E0DE01119601900D928A95F0
:10013000E1F78E010F5F1F4F7E0186E0E80EF11C94
:100140006701F80161918F01F70181917F0195DFCE
:100150000C151D05B1F72A960FB6F894DEBF0FBE39
:10016000CDBFDF91CF911F910F91FF90EF90DF9066
:10017000CF90B3CFCF93DF93FC013381232F522F46
:10018000531BA22FB0E04381818190E0840F911D29
:10019000A817B9079CF41197A60FB71FEF01C50F59
:1001A000D11D8C8190E0028002C0880F991F0A94B3
:1001B000E2F79C91982B9C932F5FE1CFDF91CF9139
:1001C0000895EF92FF920F931F93CF93DF93FC015B
:1001D000D3811181F12EFD0E20E030E0822F9D2F82
:1001E000920F9F1530F5C1E0C20F0281DF01A20F0F
:1001F000B31F14964C91002E01C0440F0A94EAF7E5
:10020000E42EC11750F4DF01AC0FB11D1496CC9150
:1002100001C0CC0F0A95EAF701C0C0E02F5F3F4F45
:10022000DB01A90FB11D9C919C1B942394279E1563
:10023000A8F6DF91CF911F910F91FF90EF90089555
:10024000CF93DF93DC0113965C91139711964C9139
:100250001197450F80E090E0E52FE80FE417B0F428
:10026000F0E03197E60FF71FED01C80FD91F2C8181
:1002700030E012960C90129702C0220F331F0A949E
:10028000E2F73081322730830196E6CFDF91CF91BC
:100290000895FF920F931F93CF93DF93EC018B018F
:1002A000F9808FDF8F110BC09B81980F993038F444
:1002B000B801CE01C5DF8B818F5F8B8313C081E0D6
:1002C0008B834A815881842F90E024E030E0251B05
:1002D0003109220F331F281739071CF0450F4A83B5
:1002E00001C01A82B801CE0145DFC801DF91CF916C
:1002F0001F910F91FF90E0CECF93DF93CDB7DEB784
:1003000028970FB6F894DEBF0FBECDBFEFDE8E018B
:100310000F5F1F4F88E0F80111928A95E9F781E09D
:100320008F83B80180916C0090916D0023DFC8012C
:10033000C3DE83E294EF0197F1F700C00000B8013B
:1003400080916C0090916D00A4DFF3CFF894FFCF03
:1003500092008C00860080007A0074006E00030218
:100360000001030603020001020703020001060365
:10037000020200010303030200010407030200015B
:100380000107040100010F090A0B0C0F000F070100
:0203900000006B
:00000001FF
