:100000000C9446000C949B000C94C9000C94F700CF
:100010000C9465000C9465000C9465000C946500CC
:100020000C9465000C9465000C9465000C946500BC
:100030000C9467000C9465000C9465000C946500AA
:100040000C9465000C9465000C9465000C9465009C
:100050000C9465000C9465000C9465000C9465008C
:100060000C9465000C9465000C9465000C9465007C
:100070000C9465000C9465000C9465000C9465006C
:100080000C9465000C9465000C94650011241FBE4F
:10009000CFEFD0E1DEBFCDBF11E0A0E0B1E0E8ECF2
:1000A000F0E100E00BBF02C007900D92A033B10752
:1000B000D9F721E0A0E3B1E001C01D92AE33B20751
:1000C000E1F70E940E050C9462080C9400001F9248
:1000D0000F920FB60F9211240BB60F922F933F93EE
:1000E0004F935F936F937F938F939F93AF93BF9340
:1000F000EF93FF93F89462E371E080913001909167
:1001000031010E940603909331018093300178946D
:10011000FF91EF91BF91AF919F918F917F916F91DF
:100120005F914F913F912F910F900BBE0F900FBE9B
:100130000F901F9018951F920F920FB60F921124D7
:100140000BB60F922F933F934F935F936F937F93D1
:100150008F939F93AF93BF93EF93FF9362E371E00D
:1001600080913001909131010E947B02FF91EF91CB
:10017000BF91AF919F918F917F916F915F914F91BF
:100180003F912F910F900BBE0F900FBE0F901F90BD
:1001900018951F920F920FB60F9211240BB60F9263
:1001A0002F933F934F935F936F937F938F939F937F
:1001B000AF93BF93EF93FF9362E371E080913001BF
:1001C000909131010E949E02FF91EF91BF91AF91FA
:1001D0009F918F917F916F915F914F913F912F915F
:1001E0000F900BBE0F900FBE0F901F9018951F928F
:1001F0000F920FB60F9211240BB60F922F933F93CD
:100200004F935F936F937F938F939F93AF93BF931E
:10021000EF93FF93F89462E371E080913001909145
:1002200031010E943E037894FF91EF91BF91AF910D
:100230009F918F917F916F915F914F913F912F91FE
:100240000F900BBE0F900FBE0F901F90189580E07F
:1002500090E00E94EA0790E00E94E60680E090E0CD
:100260000E94EA07893010F060E002C061E0680F88
:1002700080E090E00C94F207FC012081FB013081CA
:10028000FC013083FB012083089587E087BB81E573
:100290008DB9089588E087BB81EC8DB90895779B6F
:1002A000FECF8FB10895C0988FB9779BFECF613094
:1002B00009F4C09A0895CF93C62F60E00E945301BD
:1002C00061E08C2FCF910C9453010F931F93CF9328
:1002D000DF93182F062FEA01011750F0FE01E10FFE
:1002E000F11D31976081812F0E945B011F5FF4CF68
:1002F000DF91CF911F910F9108951F93CF93DF93BB
:10030000EC0111E06991812F0E945B011F5F1930A0
:10031000C9F7DF91CF911F91089560E00C945B01C4
:10032000CF93C1E08C2F0E948D01CF5FC930D1F7F0
:10033000CF910895CF92DF92EF92FF920F931F9388
:10034000CF93DF93CDB7DEB72A970FB6F894DEBF11
:100350000FBECDBF0E94450185E0E6E2F1E0DE017F
:10036000169601900D928A95E1F785E0EBE2F1E0B7
:10037000DE01119601900D928A95E1F78E010F5FD3
:100380001F4F7E0186E0E80EF11C6701F8016191C4
:100390008F01F70181917F010E945B010C151D0502
:1003A000A9F72A960FB6F894DEBF0FBECDBFDF9136
:1003B000CF911F910F91FF90EF90DF90CF900C9411
:1003C00090010F931F93CF93DF930E94E2068C015D
:1003D00086E090E00E946E05EC01C80167E070E0E5
:1003E0000E9446058C011127000F111F000F111FDD
:1003F00000501F4FF801808188838181898390E0BC
:100400000E946E059D838C8320E08981281768F403
:10041000822F90E0F801E80FF91F3281EC81FD8115
:10042000E80FF91F30832F5FF0CF0E94E20628818A
:1004300068E070E0621B71090E9446058A8381E0D2
:100440008B83CE01DF91CF911F910F910895CF93B0
:10045000DF93FC013381232F522F531BA22FB0E0D7
:100460004381818190E0840F911DA817B907A4F4FE
:100470001197A60FB71FC481D581C50FD11D8881E3
:1004800090E0028002C0880F991F0A94E2F79C91C5
:10049000982B9C932F5FE0CFDF91CF910895CF935E
:1004A000DF93DC0113965C91139711964C91119791
:1004B000450F80E090E0E52FE80FE417C8F4F0E086
:1004C0003197E60FF71F1496CD91DC911597C80F61
:1004D000D91F288130E012960C90129702C0220F8B
:1004E000331F0A94E2F73081322730830196E3CF3D
:1004F000DF91CF9108950F931F93CF93DF93EC017A
:100500008B018A818823A9F0F894CE010E944F02C2
:100510008A8181508A8383E294EF0197F1F700C0CA
:100520000000B801CE010E942702C8010E947D018F
:100530007894DF91CF911F910F9108950F931F939E
:10054000CF93DF93EC018B012A81888190E0820FA9
:10055000911D0897ACF4F894CE010E944F028A8155
:100560008F5F8A8383E294EF0197F1F700C0000068
:10057000B801CE010E942702C8010E947D01789433
:10058000DF91CF911F910F910895DF92EF92FF922B
:100590000F931F93CF93DF93FC0113810181D02E22
:1005A000D10E20E030E0822F912F920F9D1530F573
:1005B000A481B581EE24E394E20EF280ED01C20F36
:1005C000D31F48810F2C01C0440F0A94EAF7D42F9F
:1005D000E01640F4AE0DB11DCC9101C0CC0FFA94E1
:1005E000EAF701C0C0E02F5F3F4FDB01A90FB11D4B
:1005F0009C919C1B942394279D17A8F6DF91CF9183
:100600001F910F91FF90EF90DF900895FF920F934D
:100610001F93CF93DF93EC018B01F9800E94C502F9
:100620008F110CC09B81980F993040F4B801CE0116
:100630000E944F028B818F5F8B8312C0F8018081F3
:10064000882321F088E011928A95E9F78C819D81B9
:100650000E940606CE010E9406060E94E101EC01FE
:10066000B801CE010E942702C8010E947D01CE017F
:10067000DF91CF911F910F91FF900895CF92DF925C
:10068000EF92FF920F931F93CF93DF93EC018B01B7
:100690000E944F02488169818C819D810E94800364
:1006A0006C01488169810E9483047C01BE016F5FF7
:1006B0007F4FCE010E943C01698170E08C819D8159
:1006C0000E94F1069D838C8348816981C7010E9445
:1006D000CA049D838C83C6010E940606C7010E943E
:1006E0000606B801CE010E942702C801DF91CF9112
:1006F0001F910F91FF90EF90DF90CF900C947D01B0
:100700008F929F92AF92BF92CF92DF92EF92FF9221
:100710000F931F93CF93DF938C01E62EF12CC42F00
:10072000D0E0649FC00111240E946E05AC0160E01E
:1007300070E0AA24A394B12C6E157F051CF5DA0194
:1007400020E030E06801C60ED71E2C173D07ACF440
:100750004501022E01C0880C0A94EAF7F601908048
:100760009820E92DF0E0022E02C0F595E7950A9455
:10077000E2F7ED932F5F3F4FE8CF6F5F7F4F4C0F56
:100780005D1FDACFDF91CF911F910F91FF90EF9016
:10079000DF90CF90BF90AF909F908F9008956F9211
:1007A0007F928F929F92AF92BF92CF92DF92EF9201
:1007B000FF920F931F93CF93DF9300D0CDB7DEB797
:1007C0007C01649FC00111244A8369830E946E05E5
:1007D0004A81C42ED12C4C0150E06981662E712CC7
:1007E0005617E1F08401A0E0B0E070E0252F30E082
:1007F000261937092E0D3F1DA60DB71D741751F090
:100800005901AA0EBB1EF501B080F801B1928F010B
:100810007F5FF2CF5F5F8C0C9D1CE2CF0F900F903B
:10082000DF91CF911F910F91FF90EF90DF90CF90CC
:10083000BF90AF909F908F907F906F9008954F9250
:100840005F926F927F928F929F92AF92BF92CF9260
:10085000DF92EF92FF920F931F93CF93DF9300D01D
:10086000CDB7DEB76C01649FC00111244A83698350
:100870000E946E054A81842E912C9C016981062F6D
:1008800010E02801440C551CD4011197A09FF001E1
:10089000A19FF00DB09FF00D11244E0E5F1E50E091
:1008A0005617F1F0D201A51BB109AC0DBD1D5901C0
:1008B000612C712C70E0601A710A741769F07D0167
:1008C000E60CF71CE1E0EE1AF108F701F080F50103
:1008D000F1925F017F5FEFCF5F5F280D391DE0CFA1
:1008E0000F900F90DF91CF911F910F91FF90EF909C
:1008F000DF90CF90BF90AF909F908F907F906F9040
:100900005F904F9008958F929F92BF92CF92DF9207
:10091000EF92FF920F931F93CF93DF9300D0CDB749
:10092000DEB78C01649FC00111244A8369830E9451
:100930006E054A81E42EF12C980150E06981C62EA3
:10094000D12C5617C9F04901E0E0F0E070E08C01CD
:10095000051B1109EC0DFD1D741751F0D401BD905C
:100960004D01D801AE0FBF1F1197BC927F5FF2CF30
:100970005F5F2E0D3F1DE5CF0F900F90DF91CF9160
:100980001F910F91FF90EF90DF90CF90BF909F90BD
:100990008F900895AF92BF92CF92DF92EF92FF9225
:1009A0000F931F93CF93DF935C01D62EC42E062F97
:1009B00010E0C8010E946E05EC01A80160E070E043
:1009C0000E94E307EC2CF12C950150E05D15D1F06D
:1009D0008901E0E0F0E0BE01650F711DEC1570F4D7
:1009E000D8018D918D010E2E01C0880F0A94EAF76F
:1009F000DB019C91980F9C933196F0CF5F5F2E0D99
:100A00003F1DE4CFCE01DF91CF911F910F91FF9059
:100A1000EF90DF90CF90BF90AF9008950E949A0121
:100A20000E94270110926A0089B7876089BF8EB53E
:100A30008B658EBD8FB582608FBD87B7806187BFA4
:100A40008CE49DE197BD86BD1DBC81E08CBD88E036
:100A5000E2E3F1E0DF011D928A95E9F786E090E09C
:100A60000E946E0590933101809330010E94E10154
:100A7000909331018093300162E371E00E9427027C
:100A800082E391E00E947D017894FFCF97FB072ECF
:100A900016F4009407D077FD09D00E945A0507FC90
:100AA00005D03EF4909581959F4F0895709561957E
:100AB0007F4F0895AA1BBB1B51E107C0AA1FBB1F94
:100AC000A617B70710F0A61BB70B881F991F5A95DA
:100AD000A9F780959095BC01CD010895CF93DF9340
:100AE0008230910510F482E090E0E0913C01F091B9
:100AF0003D0120E030E0A0E0B0E0309739F14081E6
:100B0000518148175907B8F04817590771F4828185
:100B10009381109729F013969C938E9312972CC073
:100B200090933D0180933C0127C02115310531F0A0
:100B30004217530718F0A901DB0101C0EF019A0128
:100B4000BD01DF010280F381E02DD7CF21153105F2
:100B5000F9F0281B390B2430310580F48A819B8100
:100B60006115710521F0FB019383828304C090938A
:100B70003D0180933C01FE01329644C0FE01E20F2C
:100B8000F31F8193919322503109398328833AC00E
:100B900020913A0130913B01232B41F420911E0119
:100BA00030911F0130933B0120933A0120911C01A9
:100BB00030911D012115310541F42DB73EB740910B
:100BC000200150912101241B350BE0913A01F09155
:100BD0003B01E217F307A0F42E1B3F0B2817390740
:100BE00078F0AC014E5F5F4F2417350748F04E0F89
:100BF0005F1F50933B0140933A018193919302C050
:100C0000E0E0F0E0CF01DF91CF910895CF93DF9343
:100C1000009709F487C0FC01329713821282C091B9
:100C20003C01D0913D01209781F420813181280F32
:100C3000391F80913A0190913B018217930779F512
:100C4000F0933B01E0933A016DC0DE0120E030E01B
:100C5000AE17BF0750F412964D915C9113979D010A
:100C60004115510509F1DA01F3CFB383A283408125
:100C70005181840F951F8A179B0771F48D919C9168
:100C80001197840F951F02969183808312968D9100
:100C90009C911397938382832115310529F4F09356
:100CA0003D01E0933C013EC0D9011396FC93EE93C5
:100CB00012974D915D91A40FB51FEA17FB0779F4C8
:100CC00080819181840F951F0296D90111969C9382
:100CD0008E938281938113969C938E931297E0E07A
:100CE000F0E08A819B81009719F0FE01EC01F9CFB9
:100CF000CE01029628813981820F931F20913A01FB
:100D000030913B012817390769F4309729F4109284
:100D10003D0110923C0102C013821282D0933B012C
:100D2000C0933A01DF91CF9108958F929F92AF9235
:100D3000BF92CF92DF92EF92FF92CF93DF93EC01BD
:100D4000688179818A819B81611571058105910591
:100D500021F464E279ED8BE597E02DE133EF41E09A
:100D600050E00E94FF0749015A019B01AC01A7EA2C
:100D7000B1E40E941E086B017C01ACEEB4EFA5014A
:100D800094010E942C08C60ED71EE81EF91EF7FE1D
:100D900006C081E0C81AD108E10880E8F80AC882D4
:100DA000D982EA82FB82C6019F77DF91CF91FF90C3
:100DB000EF90DF90CF90BF90AF909F908F9008956D
:100DC0000C94950682E291E00C949506A0E0B0E0C8
:100DD0008093220190932301A0932401B0932501D5
:100DE00008956F927F928F929F92AF92BF92CF920F
:100DF000DF92EF92FF920F931F93CF93DF93EC015B
:100E0000CB01209781F4DF91CF911F910F91FF903B
:100E1000EF90DF90CF90BF90AF909F908F907F909A
:100E20006F900C946E05FE01E60FF71F9E01225095
:100E30003109E217F30708F4ACC0D9010D911C91F8
:100E4000119706171707B8F00530110508F49FC071
:100E5000A801445051094617570708F498C002509A
:100E60001109061B170B019311936D937C93CF010E
:100E70000E9406068CC05B01A01AB10A4E01800ECA
:100E8000911EA0913C01B0913D01612C712C60E05C
:100E900070E0109709F449C0A815B905C9F5ED909F
:100EA000FC901197670142E0C40ED11CCA14DB0408
:100EB00078F147018A189B08640142E0C40ED11CF6
:100EC0001296BC9012971396AC91B5E0CB16D10454
:100ED00040F0B282A38391828082D9018D939C934A
:100EE00009C00E5F1F4F0E0D1F1DF90111830083F6
:100EF000EB2DFA2F6115710531F0DB011396FC9390
:100F0000EE93129744C0F0933D01E0933C013FC043
:100F10006D917C9111976616770608F43B01BD012F
:100F200012960D90BC91A02DB4CF60913A017091B2
:100F30003B0168157905E9F468167906D0F440910B
:100F40001C0150911D014115510541F44DB75EB78B
:100F50006091200170912101461B570BE417F507A2
:100F6000C0F4F0933B01E0933A01F901918380834F
:100F70000EC00E946E057C01009759F0A801BE01C9
:100F80000E94DA07CE010E940606C70104C0CE0106
:100F900002C080E090E0DF91CF911F910F91FF9010
:100FA000EF90DF90CF90BF90AF909F908F907F9009
:100FB0006F900895FB01DC0102C001900D92415039
:100FC0005040D8F70895DC0101C06D934150504066
:100FD000E0F70895E199FECF9FBB8EBBE09A992779
:100FE0008DB30895262FE199FECF9FBB8EBB2DBBFD
:100FF0000FB6F894E29AE19A0FBE01960895052E75
:1010000097FB1EF400940E94160857FD07D00E941B
:10101000310807FC03D04EF40C9416085095409507
:10102000309521953F4F4F4F5F4F08959095809594
:10103000709561957F4F8F4F9F4F08950E94530881
:10104000A59F900DB49F900DA49F800D911D11241C
:101050000895B7FF0C941E080E941E08821B930B74
:101060000895A1E21A2EAA1BBB1BFD010DC0AA1FE9
:10107000BB1FEE1FFF1FA217B307E407F50720F001
:10108000A21BB30BE40BF50B661F771F881F991F7C
:101090001A9469F760957095809590959B01AC01C5
:1010A000BD01CF010895A29FB001B39FC001A39FCE
:1010B000700D811D1124911DB29F700D811D112491
:0810C000911D0895F894FFCF83
:1010C80004010F00030201070302040702020303DD
:1010D80003020603030202070302030600003E019F
:1010E800200001000000090A0B0C0F000F07010087
:00000001FF
