:1000000012C024C023C022C021C020C01FC01EC0F7
:100010001DC01CC01BC01AC019C018C017C016C014
:1000200015C014C013C011241FBECFE5D4E0DEBF3D
:10003000CDBF10E0A0E6B0E0EEE6F2E002C0059031
:100040000D92A23AB107D9F7ECD00FC1D9CFCF9317
:10005000DF93FC013381232F522F531BA22FB0E0DB
:100060004381818190E0840F911DA817B9079CF40A
:100070001197A60FB71FEF01C50FD11D8C8190E01E
:10008000028002C0880F991F0A94E2F79C91982B76
:100090009C932F5FE1CFDF91CF9108950F931F9332
:1000A000CF93DF93FC018B0153814181450F493090
:1000B00000F520E030E0A52FA20FA417B0F4B0E0C7
:1000C0001197A00FB11FCF01820F931FEC018C81FC
:1000D00090E0028002C0880F991F0A94E2F79C9179
:1000E00098279C932F5F3F4FE6CF83818F5F838359
:1000F00013C081E0838342815081842F90E024E00B
:1001000030E0251B3109220F331F281739071CF057
:10011000450F428301C01282B801CF0198DFC801A8
:10012000DF91CF911F910F911EC08CE287BB81EDB3
:100130008DB9089580E187BB81EC8DB90895779BD7
:10014000FECF8FB10895C2988FB9779BFECF6130F3
:1001500009F4C29A0895CF93C62F60E0F4DF61E0FE
:100160008C2FCF91F0CF1F93CF93DF93EC0111E051
:100170006991812FF0DF1F5F1930D1F7DF91CF91A7
:100180001F91089560E0E7CFCF93C1E08C2FFADF95
:10019000CF5FC930D9F7CF910895CF92DF92EF9218
:1001A000FF920F931F93CF93DF93CDB7DEB72A97BC
:1001B0000FB6F894DEBF0FBECDBFB7DF85E0E7E92D
:1001C000F0E0DE01169601900D928A95E1F785E048
:1001D000ECE9F0E0DE01119601900D928A95E1F7CD
:1001E0008E010F5F1F4F7E0186E0E80EF11C670154
:1001F000F80161918F01F70181917F01ACDF0C154E
:100200001D05B1F72A960FB6F894DEBF0FBECDBF1D
:10021000DF91CF911F910F91FF90EF90DF90CF90E2
:10022000B3CFCF93DF93CDB7DEB728970FB6F8944F
:10023000DEBF0FBECDBFB1DF8E010F5F1F4F88E065
:10024000F80111928A95E9F7B80180E890E0FFDEA5
:10025000C80189DF83E294EF0197F1F700C0000045
:0E026000B80180E890E01ADFF5CFF894FFCFE8
:10026E0092008C00860080007A0074006E000302FB
:10027E000001030603020001020703020001060348
:10028E00020200010303030200010407030200013E
:10029E000107040100010F090A0B0C0F000F0701E3
:0202AE0000004E
:00000001FF
