:100000000C9446000C9473000C94A3000C94D30041
:100010000C9465000C9465000C9465000C946500CC
:100020000C9465000C9465000C9465000C946500BC
:100030000C9467000C9465000C9465000C946500AA
:100040000C9465000C9465000C9465000C9465009C
:100050000C9465000C9465000C9465000C9465008C
:100060000C9465000C9465000C9465000C9465007C
:100070000C9465000C9465000C9465000C9465006C
:100080000C9465000C9465000C94650011241FBE4F
:10009000CFEFD0E1DEBFCDBF11E0A0E0B1E0E8EBF3
:1000A000F0E100E00BBF02C007900D92A033B10752
:1000B000D9F721E0A0E3B1E001C01D92AE33B20751
:1000C000E1F70E94F2050C945A080C9400001F926C
:1000D0000F920FB60F921124F89478940F900FBEE0
:1000E0000F901F9018951F920F920FB60F92112428
:1000F0000BB60F922F933F934F935F936F937F9322
:100100008F939F93AF93BF93EF93FF93F89462E322
:1001100071E080913001909131010E9493037894B5
:10012000FF91EF91BF91AF919F918F917F916F91CF
:100130005F914F913F912F910F900BBE0F900FBE8B
:100140000F901F9018951F920F920FB60F921124C7
:100150000BB60F922F933F934F935F936F937F93C1
:100160008F939F93AF93BF93EF93FF93F89462E3C2
:1001700071E080913001909131010E94BD0378942B
:10018000FF91EF91BF91AF919F918F917F916F916F
:100190005F914F913F912F910F900BBE0F900FBE2B
:1001A0000F901F9018951F920F920FB60F92112467
:1001B0000BB60F922F933F934F935F936F937F9361
:1001C0008F939F93AF93BF93EF93FF93F89462E362
:1001D00071E080913001909131010E94EC0378949C
:1001E000FF91EF91BF91AF919F918F917F916F910F
:1001F0005F914F913F912F910F900BBE0F900FBECB
:100200000F901F90189580E090E00E94E20790E028
:100210000E94D00780E090E00E94E207893010F051
:1002200060E002C061E0680F80E090E00C94EA07B3
:10023000FC012081FB013081FC013083FB01208324
:10024000089587E087BB81E58DB9089588E087BB75
:1002500081EC8DB90895779BFECF8FB10895C0983A
:100260008FB9779BFECF613009F4C09A0895CF9380
:10027000C62F60E00E942F0161E08C2FCF910C947B
:100280002F010F931F93CF93DF93182F062FEA01AF
:10029000011750F0FE01E10FF11D31976081812FB0
:1002A0000E9437011F5FF4CFDF91CF911F910F9113
:1002B00008951F93CF93DF93EC0111E06991812F93
:1002C0000E9437011F5F1930C9F7DF91CF911F914D
:1002D000089560E00C943701CF93C1E08C2F0E9409
:1002E0006901CF5FC930D1F7CF910895CF92DF92E6
:1002F000EF92FF920F931F93CF93DF93CDB7DEB7AB
:100300002A970FB6F894DEBF0FBECDBF0E94210121
:1003100085E0E6E2F1E0DE01169601900D928A9505
:10032000E1F785E0EBE2F1E0DE01119601900D923C
:100330008A95E1F78E010F5F1F4F7E0186E0E80E80
:10034000F11C6701F80161918F01F70181917F0133
:100350000E9437010C151D05A9F72A960FB6F894CF
:10036000DEBF0FBECDBFDF91CF911F910F91FF90E8
:10037000EF90DF90CF900C946C01CF93DF9386E0E9
:1003800090E00E945806EC018091080188838091DA
:100390000901898390E00E9458069D838C8320E0A8
:1003A0008981281768F4822F90E0FC01E050FF4F0C
:1003B0003285EC81FD81E80FF91F30832F5FF0CF8C
:1003C0000E94CC07288168E070E0621B71090E94DE
:1003D00030068A8381E08B83CE01DF91CF9108952F
:1003E000CF93DF93FC013381232F522F531BA22F76
:1003F000B0E04381818190E0840F911DA817B90777
:10040000A4F41197A60FB71FC481D581C50FD11DC4
:10041000888190E0028002C0880F991F0A94E2F759
:100420009C91982B9C932F5FE0CFDF91CF91089503
:10043000CF93DF93DC0113965C91139711964C9147
:100440001197450F80E090E0E52FE80FE417C8F41E
:10045000F0E03197E60FF71F1496CD91DC911597D8
:10046000C80FD91F288130E012960C90129702C055
:10047000220F331F0A94E2F730813227308301962E
:10048000E3CFDF91CF910895EF92FF920F931F93E7
:10049000CF93DF931F92CDB7DEB78C0186E090E05B
:1004A00069830E9458067C01D8018C91F7018083F2
:1004B00011968C91818390E00E945806D701159681
:1004C0009C938E931497F801828112968C931297C5
:1004D000838113968C936981633631F423E6A701F7
:1004E000B7016F5F7F4F08C06D3681F42DE6A7011D
:1004F000B7016F5F7F4FF801848195810E94980555
:10050000D70115969C938E9314971EC0623711F0F5
:1005100020E002C022E7EBCFF80181812817A0F488
:10052000822F90E0D8011496ED91FC911597E80F79
:10053000F91F3081D7011496ED91FC911597E80FC2
:10054000F91F30832F5FE8CFC7010F90DF91CF9164
:100550001F910F91FF90EF900895DF92EF92FF921D
:100560000F931F93CF93DF93FC0113810181D02E52
:10057000D10E20E030E0822F912F920F9D1530F5A3
:10058000A481B581EE24E394E20EF280ED01C20F66
:10059000D31F48810F2C01C0440F0A94EAF7D42FCF
:1005A000E01640F4AE0DB11DCC9101C0CC0FFA9411
:1005B000EAF701C0C0E02F5F3F4FDB01A90FB11D7B
:1005C0009C919C1B942394279D17A8F6DF91CF91B3
:1005D0001F910F91FF90EF90DF900895FF920F937E
:1005E0001F93CF93DF93EC018B01F9800E94AD0242
:1005F0008F110CC09B81980F993040F4B801CE0147
:100600000E9418028B818F5F8B8312C0F80180815A
:10061000882321F088E011928A95E9F78C819D81E9
:100620000E94F006CE010E94F0060E94BD01EC017E
:10063000B801CE010E94F001C8010E945901CE010B
:10064000DF91CF911F910F91FF900895BF92CF92AC
:10065000DF92EF92FF920F931F93CF93DF9300D01F
:10066000CDB7DEB78C017B0188E08A83898342376E
:1006700019F49DE6B92E02C083E6B82EB701C80171
:100680000E9418022B2DAE014F5F5F4FBE016E5FBF
:100690007F4FC7010E9498056C01B701C8010E94F5
:1006A000F0016B2DC8010E9444027C01F801928187
:1006B000F3E6BF1210C089818F5F891BF80190811A
:1006C000891BF70183838A818F5FF8019381891BDE
:1006D0009181891B06C09F5FF7019383F801838195
:1006E0008150F7018283B601C7010E94F001B60173
:1006F000C7010E94AD0211E0F7019181891310E05A
:10070000C7010E94F006C6010E94F006812F0F90DB
:100710000F90DF91CF911F910F91FF90EF90DF909D
:10072000CF90BF9008950F931F93CF93DF93EC0169
:100730008B014CE60E94260390E021E030E04A81E4
:10074000411102C020E030E028233923232B81F01F
:10075000F894B801CE010E9418028A8181508A83E0
:10076000B801CE010E94F001C8010E94590178949D
:10077000DF91CF911F910F9108950F931F93CF9306
:10078000DF93EC018B0142E70E94260390E04A814F
:10079000288130E0240F311D41E050E02830310540
:1007A00014F040E050E048235923452B81F0F894A1
:1007B000B801CE010E9418028A818F5F8A83B80136
:1007C000CE010E94F001C8010E9459017894DF9186
:1007D000CF911F910F9108950F931F93CF93DF93A4
:1007E000EC018B010E941802BE016F5F7F4F22E770
:1007F000AE018C819D810E9498059D838C83B801F8
:10080000CE010E94F001C801DF91CF911F910F919D
:100810000C9459018F929F92AF92BF92CF92DF9228
:10082000EF92FF920F931F93CF93DF938C01E62EED
:10083000F12CC42FD0E0649FC00111240E945806FF
:10084000AC0160E070E0AA24A394B12C6E157F0582
:100850001CF5DA0120E030E06801C60ED71E2C1727
:100860003D07ACF44501022E01C0880C0A94EAF75A
:10087000F60190809820E92DF0E0022E02C0F59557
:10088000E7950A94E2F7ED932F5F3F4FE8CF6F5F54
:100890007F4F4C0F5D1FDACFDF91CF911F910F91EA
:1008A000FF90EF90DF90CF90BF90AF909F908F9090
:1008B00008956F927F928F929F92AF92BF92CF9244
:1008C000DF92EF92FF920F931F93CF93DF9300D0AD
:1008D000CDB7DEB77C01649FC00111244A836983D0
:1008E0000E9458064A81C42ED12C4C0150E06981E7
:1008F000662E712C5617E1F08401A0E0B0E070E0A4
:10090000252F30E0261937092E0D3F1DA60DB71DE6
:10091000741751F05901AA0EBB1EF501B080F80101
:10092000B1928F017F5FF2CF5F5F8C0C9D1CE2CF95
:100930000F900F90DF91CF911F910F91FF90EF904B
:10094000DF90CF90BF90AF909F908F907F906F90EF
:1009500008954F925F926F927F928F929F92AF9283
:10096000BF92CF92DF92EF92FF920F931F93CF939C
:10097000DF9300D0CDB7DEB76C01649FC0011124B6
:100980004A8369830E9458064A81842E912C9C01D7
:100990006981062F10E02801440C551CD4011197E1
:1009A000A09FF001A19FF00DB09FF00D11244E0EFD
:1009B0005F1E50E05617F1F0D201A51BB109AC0D36
:1009C000BD1D5901612C712C70E0601A710A7417F9
:1009D00069F07D01E60CF71CE1E0EE1AF108F70181
:1009E000F080F501F1925F017F5FEFCF5F5F280D2F
:1009F000391DE0CF0F900F90DF91CF911F910F9194
:100A0000FF90EF90DF90CF90BF90AF909F908F902E
:100A10007F906F905F904F9008958F929F92BF92BA
:100A2000CF92DF92EF92FF920F931F93CF93DF93BA
:100A300000D0CDB7DEB78C01649FC00111244A837A
:100A400069830E9458064A81E42EF12C980150E0F7
:100A50006981C62ED12C5617C9F04901E0E0F0E0BB
:100A600070E08C01051B1109EC0DFD1D741751F090
:100A7000D401BD904D01D801AE0FBF1F1197BC929C
:100A80007F5FF2CF5F5F2E0D3F1DE5CF0F900F9080
:100A9000DF91CF911F910F91FF90EF90DF90CF905A
:100AA000BF909F908F900895AF92BF92CF92DF92A8
:100AB000EF92FF920F931F93CF93DF935C01D62E9B
:100AC000C42E062F10E0C8010E945806EC01A801B0
:100AD00060E070E00E94DB07EC2CF12C950150E007
:100AE0005D15D1F08901E0E0F0E0BE01650F711DF8
:100AF000EC1570F4D8018D918D010E2E01C0880F78
:100B00000A94EAF7DB019C91980F9C933196F0CF01
:100B10005F5F2E0D3F1DE4CFCE01DF91CF911F917E
:100B20000F91FF90EF90DF90CF90BF90AF9008951E
:100B3000AF92BF92CF92DF92EF92FF920F931F93EB
:100B4000CF93DF9300D01F92CDB7DEB77B016A0150
:100B5000FA014081FB0160812B830E940A048C0111
:100B6000F7016081F6014081649FC00111244A832E
:100B700069830E9458065C012B814A8169812D3668
:100B800021F4C8010E9459040BC0233621F4C80186
:100B90000E94A90405C0223721F4C8010E940D0556
:100BA0005C01B601C7010E941801F6014081F701FE
:100BB0006081C5010E9454057C01C8010E94F006B5
:100BC000C5010E94F006C7010F900F900F90DF91B2
:100BD000CF911F910F91FF90EF90DF90CF90BF903A
:100BE000AF9008950E9476010E94030110926A005E
:100BF00089B7876089BF8EB58B658EBD8FB58260E2
:100C00008FBD87B7806187BF8CE49DE197BD86BDAE
:100C10001DBCC1E0CCBD48E050E061E870E082E37B
:100C200091E00E94DB07C093320180E8809333019A
:100C300086E090E00E945806909331018093300145
:100C40000E94BD01909331018093300162E371E015
:100C50000E94F00182E391E00E9459017894FFCF55
:100C600097FB072E16F4009407D077FD09D00E9459
:100C7000440607FC05D03EF4909581959F4F08955A
:100C8000709561957F4F0895AA1BBB1B51E107C06A
:100C9000AA1FBB1FA617B70710F0A61BB70B881F0C
:100CA000991F5A95A9F780959095BC01CD0108959B
:100CB000CF93DF938230910510F482E090E0E091D1
:100CC0003C01F0913D0120E030E0A0E0B0E0309741
:100CD00039F14081518148175907B8F04817590731
:100CE00071F482819381109729F013969C938E93CF
:100CF00012972CC090933D0180933C0127C0211591
:100D0000310531F04217530718F0A901DB0101C08A
:100D1000EF019A01BD01DF010280F381E02DD7CF01
:100D200021153105F9F0281B390B2430310580F4E9
:100D30008A819B816115710521F0FB019383828378
:100D400004C090933D0180933C01FE01329644C063
:100D5000FE01E20FF31F81939193225031093983F1
:100D600028833AC020913A0130913B01232B41F472
:100D700020911E0130911F0130933B0120933A01D5
:100D800020911C0130911D012115310541F42DB731
:100D90003EB74091200150912101241B350BE09179
:100DA0003A01F0913B01E217F307A0F42E1B3F0B31
:100DB0002817390778F0AC014E5F5F4F24173507CD
:100DC00048F04E0F5F1F50933B0140933A018193CF
:100DD000919302C0E0E0F0E0CF01DF91CF91089560
:100DE000CF93DF93009709F487C0FC0132971382F9
:100DF0001282C0913C01D0913D01209781F4208165
:100E00003181280F391F80913A0190913B0182175F
:100E1000930779F5F0933B01E0933A016DC0DE0151
:100E200020E030E0AE17BF0750F412964D915C9170
:100E300013979D014115510509F1DA01F3CFB383F1
:100E4000A28340815181840F951F8A179B0771F4FB
:100E50008D919C911197840F951F029691838083A9
:100E600012968D919C91139793838283211531055E
:100E700029F4F0933D01E0933C013EC0D901139663
:100E8000FC93EE9312974D915D91A40FB51FEA1755
:100E9000FB0779F480819181840F951F0296D90117
:100EA00011969C938E938281938113969C938E933B
:100EB0001297E0E0F0E08A819B81009719F0FE0133
:100EC000EC01F9CFCE01029628813981820F931F60
:100ED00020913A0130913B012817390769F4309786
:100EE00029F410923D0110923C0102C0138212823B
:100EF000D0933B01C0933A01DF91CF9108958F9237
:100F00009F92AF92BF92CF92DF92EF92FF92CF93D8
:100F1000DF93EC01688179818A819B81611571057C
:100F20008105910521F464E279ED8BE597E02DE1EF
:100F300033EF41E050E00E94F70749015A019B015D
:100F4000AC01A7EAB1E40E9416086B017C01ACEE8B
:100F5000B4EFA50194010E942408C60ED71EE81E16
:100F6000F91EF7FE06C081E0C81AD108E10880E842
:100F7000F80AC882D982EA82FB82C6019F77DF9194
:100F8000CF91FF90EF90DF90CF90BF90AF909F9068
:100F90008F9008950C947F0782E291E00C947F0774
:100FA000A0E0B0E08093220190932301A09324015C
:100FB000B09325010895DC0101C06D93415050406C
:100FC000E0F70895E199FECF9FBB8EBBE09A992789
:100FD0008DB30895262FE199FECF9FBB8EBB2DBB0D
:100FE0000FB6F894E29AE19A0FBE01960895052E85
:100FF00097FB1EF400940E940E0857FD07D00E9434
:10100000290807FC03D04EF40C940E085095409527
:10101000309521953F4F4F4F5F4F089590958095A4
:10102000709561957F4F8F4F9F4F08950E944B0899
:10103000A59F900DB49F900DA49F800D911D11242C
:101040000895B7FF0C9416080E941608821B930B94
:101050000895A1E21A2EAA1BBB1BFD010DC0AA1FF9
:10106000BB1FEE1FFF1FA217B307E407F50720F011
:10107000A21BB30BE40BF50B661F771F881F991F8C
:101080001A9469F760957095809590959B01AC01D5
:10109000BD01CF010895A29FB001B39FC001A39FDE
:1010A000700D811D1124911DB29F700D811D1124A1
:0810B000911D0895F894FFCF93
:1010B80004010F00030201070302040702020303ED
:1010C80003020603030202070302030600003E01AF
:1010D800200001000000090A0B0C0F000F07010097
:00000001FF
