:1000000012C02CC02BC02AC029C028C027C026C0BF
:1000100025C024C023C022C021C020C01FC01EC0D4
:100020001DC01CC01BC011241FBECFE5D4E0DEBF25
:10003000CDBF10E0A0E6B0E0E2EEFAE002C005902D
:100040000D92A039B107D9F720E0A0E9B0E001C0D6
:100050001D92A439B207E1F707D341C5D1CF80E0A3
:1000600090E0CED490E0C1D480E090E0C9D4893053
:1000700010F060E002C061E0680F80E090E0C8C46A
:100080008CE287BB81ED8DB9089580E187BB81EC5F
:100090008DB90895779BFECF8FB10895C2988FB91F
:1000A000779BFECF613009F4C29A0895CF93C62F93
:1000B00060E0F4DF61E08C2FCF91F0CF0F931F93BE
:1000C000CF93DF93182F062FEA01011748F0FE01A6
:1000D000E10FF11D31976081812FE8DF1F5FF5CFC0
:1000E000DF91CF911F910F9108951F93CF93DF93CD
:1000F000EC0111E06991812FD9DF1F5F1930D1F731
:10010000DF91CF911F91089560E0D0CFCF93C1E0F0
:100110008C2FFADFCF5FC930D9F7CF910895CF92F6
:10012000DF92EF92FF920F931F93CF93DF93CDB7A0
:10013000DEB72A970FB6F894DEBF0FBECDBFA0DFA3
:1001400085E0E6E8F0E0DE01169601900D928A95D2
:10015000E1F785E0EBE8F0E0DE01119601900D9209
:100160008A95E1F78E010F5F1F4F7E0186E0E80E52
:10017000F11C6701F80161918F01F70181917F0105
:1001800095DF0C151D05B1F72A960FB6F894DEBF62
:100190000FBECDBFDF91CF911F910F91FF90EF90D8
:1001A000DF90CF90B3CF0F931F93CF93DF9319D4EA
:1001B0008C0186E090E0A4D2EC01C80167E070E019
:1001C00078D28C011127000F111F000F111F005A48
:1001D0001F4FF801808188838181898390E090D2CC
:1001E0009D838C8320E08981281768F4822F90E01A
:1001F000F801E80FF91F3281EC81FD81E80FF91F4A
:1002000030832F5FF0CFEDD3288168E070E0621B70
:1002100071094FD28A8381E08B83CE01DF91CF9128
:100220001F910F910895CF93DF93FC013381232F0A
:10023000522F531BA22FB0E04381818190E0840FA5
:10024000911DA817B907A4F41197A60FB71FC48171
:10025000D581C50FD11D888190E0028002C0880F32
:10026000991F0A94E2F79C91982B9C932F5FE0CF03
:10027000DF91CF910895DF92EF92FF920F931F933A
:10028000CF93DF93FC0113810181D02ED10E20E0AA
:1002900030E0822F912F920F9D1530F5A481B5810A
:1002A000EE24E394E20EF280ED01C20FD31F4881E9
:1002B0000F2C01C0440F0A94EAF7D42FE01640F443
:1002C000AE0DB11DCC9101C0CC0FFA94EAF701C07C
:1002D000C0E02F5F3F4FDB01A90FB11D9C919C1B1C
:1002E000942394279D17A8F6DF91CF911F910F912A
:1002F000FF90EF90DF900895CF93DF93DC0113968A
:100300005C91139711964C911197450F80E090E006
:10031000E52FE80FE417C8F4F0E03197E60FF71F78
:100320001496CD91DC911597C80FD91F288130E024
:1003300012960C90129702C0220F331F0A94E2F714
:100340003081322730830196E3CFDF91CF9108953A
:10035000FF920F931F93CF93DF93EC018B01F980F2
:100360008ADF8F110BC09B81980F993038F4B80148
:10037000CE01C2DF8B818F5F8B830CC0F80180813F
:10038000823020F088E011928A95E9F7CE0150D2B0
:100390000ADFEC01B801CE0146DFC801A6DECE01BE
:1003A000DF91CF911F910F91FF900895CF92DF922F
:1003B000EF92FF920F931F93CF93DF93E82E062FB8
:1003C00090E0880F991F9CD16C01C82FDD2DF12C76
:1003D00010E0FE1431F0C80193D189939993F394FE
:1003E000F8CFC601DF91CF911F910F91FF90EF9051
:1003F000DF90CF9008954F925F926F927F928F928D
:100400009F92AF92BF92CF92DF92EF92FF920F93A3
:100410001F93CF93DF931F92CDB7DEB77C01A62E3B
:10042000642F8A2D4983C2DF3C01A0E0B0E0B12CEB
:10043000498150E061E070E0AA15BB053CF520E081
:1004400030E06701CA0EDB1E24173507D4F4F30130
:1004500040805180420E531E4B01022E01C0880C79
:100460000A94EAF7F6010081082110E0022E02C08A
:10047000159507950A94E2F7F20100832F5F3F4F2D
:10048000E3CF1196F2E06F0E711CD6CF0F90DF9183
:10049000CF911F910F91FF90EF90DF90CF90BF9081
:1004A000AF909F908F907F906F905F904F90089546
:1004B000AF92BF92DF92EF92FF920F931F93CF9371
:1004C000DF931F92CDB7DEB7D82EE92EF62E642F1C
:1004D0008F2D49836BDFFC0160E070E049816F156F
:1004E000D8F4AD2CBE2C20E030E0241788F4D501E0
:1004F0000D911D915D01060F171FD8015C910081C0
:100500001181020F131FD8015C932F5F3F4FEDCF76
:100510006F5F7F4F3296E3CF0F90DF91CF911F91A6
:100520000F91FF90EF90DF90BF90AF9008956F9282
:100530007F928F929F92BF92CF92DF92EF92FF9223
:100540000F931F93CF93DF931F92CDB7DEB78C012C
:10055000B62E642F8B2D498329DF4C0198012B0D7A
:10056000311D2B0D311D50E04981642E712C61E04D
:10057000661A71085B1519F100E010E0A0E0B0E028
:100580006301C51AD10802501109A41798F4790122
:10059000E00EF11EF701E080F180EC0CFD1CF7018C
:1005A0006081F401E080F180EA0EFB1EF7016083B8
:1005B0001196E9CF5F5FF2E08F0E911CDBCF0F90B9
:1005C000DF91CF911F910F91FF90EF90DF90CF902F
:1005D000BF909F908F907F906F900895CF92DF9201
:1005E000EF92FF920F931F93CF93DF931F92CDB79C
:1005F000DEB7D82EE92EF62E61E08F2D4983D6DEA8
:10060000182F092F15D1812F6D2D7E2DE12FF02F61
:1006100049819E2F981B9F15D8F420E030E02417C5
:1006200098F4DB01CD90DC90C20ED31ED6019C91D4
:10063000A92F022E01C0AA0F0A94EAF790819A0FFF
:1006400090832F5F3F4FEBCF31966E5F7F4FE1CFAF
:10065000812F902F0F90DF91CF911F910F91FF90DD
:10066000EF90DF90CF900895CF93DF93CDB7DEB7B3
:1006700028970FB6F894DEBF0FBECDBF50DDEFDC7C
:100680008E010F5F1F4F88E0F80111928A95E9F7FC
:100690008ADD7C01B801C7DDC80127DD83E294EF64
:1006A0000197F1F700C00000B801C70151DE7C01DD
:1006B000F5CF97FB072E16F4009406D077FD08D0EF
:1006C0000BD007FC05D03EF4909581959F4F08957F
:1006D000709561957F4F0895AA1BBB1B51E107C020
:1006E000AA1FBB1FA617B70710F0A61BB70B881FC2
:1006F000991F5A95A9F780959095BC01CD01089551
:10070000CF93DF938230910510F482E090E0E09186
:100710009200F091930020E030E0A0E0B0E030974C
:1007200039F14081518148175907B8F048175907E6
:1007300071F482819381109729F013969C938E9384
:1007400012972CC0909393008093920027C021159C
:10075000310531F04217530718F0A901DB0101C040
:10076000EF019A01BD01DF010280F381E02DD7CFB7
:1007700021153105F9F0281B390B2430310580F49F
:100780008A819B816115710521F0FB01938382832E
:1007900004C09093930080939200FE01329644C06F
:1007A000FE01E20FF31F81939193225031093983A7
:1007B00028833AC02091900030919100232B41F47E
:1007C00020917E0030917F00309391002093900023
:1007D00020917C0030917D002115310541F42DB729
:1007E0003EB74091800050918100241B350BE09171
:1007F0009000F0919100E217F307A0F42E1B3F0B3D
:100800002817390778F0AC014E5F5F4F2417350782
:1008100048F04E0F5F1F50939100409390008193DA
:10082000919302C0E0E0F0E0CF01DF91CF91089515
:10083000CF93DF93009709F487C0FC0132971382AE
:100840001282C0919200D0919300209781F4208170
:100850003181280F391F809190009091910082176B
:10086000930779F5F0939100E09390006DC0DE015D
:1008700020E030E0AE17BF0750F412964D915C9126
:1008800013979D014115510509F1DA01F3CFB383A7
:10089000A28340815181840F951F8A179B0771F4B1
:1008A0008D919C911197840F951F0296918380835F
:1008B00012968D919C911397938382832115310514
:1008C00029F4F0939300E09392003EC0D90113966F
:1008D000FC93EE9312974D915D91A40FB51FEA170B
:1008E000FB0779F480819181840F951F0296D901CD
:1008F00011969C938E938281938113969C938E93F1
:100900001297E0E0F0E08A819B81009719F0FE01E8
:10091000EC01F9CFCE01029628813981820F931F15
:1009200020919000309191002817390769F4309791
:1009300029F4109293001092920002C01382128246
:10094000D0939100C0939000DF91CF9108958F9242
:100950009F92AF92BF92CF92DF92EF92FF92CF938E
:10096000DF93EC01688179818A819B816115710532
:100970008105910521F464E279ED8BE597E02DE1A5
:1009800033EF41E050E051D049015A019B01AC01E5
:10099000A7EAB1E466D06B017C01ACEEB4EFA5012F
:1009A00094016BD0C60ED71EE81EF91EF7FE06C0D6
:1009B00081E0C81AD108E10880E8F80AC882D98223
:1009C000EA82FB82C6019F77DF91CF91FF90EF9083
:1009D000DF90CF90BF90AF909F908F900895B7DF3A
:1009E000089582E890E0B3DF0895A0E0B0E080933E
:1009F000820090938300A0938400B09385000895B3
:100A0000E199FECF9FBB8EBBE09A99278DB30895E5
:100A1000262FE199FECF9FBB8EBB2DBB0FB6F8945E
:100A2000E29AE19A0FBE01960895052E97FB16F4FF
:100A300000940FD057FD05D024D007FC02D046F417
:100A400008C050954095309521953F4F4F4F5F4FCF
:100A5000089590958095709561957F4F8F4F9F4F2A
:100A6000089531D0A59F900DB49F900DA49F800D47
:100A7000911D11240895B7FFF4CFF3DF821B930B70
:100A80000895A1E21A2EAA1BBB1BFD010DC0AA1FCF
:100A9000BB1FEE1FFF1FA217B307E407F50720F0E7
:100AA000A21BB30BE40BF50B661F771F881F991F62
:100AB0001A9469F760957095809590959B01AC01AB
:100AC000BD01CF010895A29FB001B39FC001A39FB4
:100AD00001D0B29F700D811D1124911D0895F894CD
:020AE000FFCF46
:100AE20004010F00030201070302040702020303C9
:100AF2000302060303020207030203060000940036
:100B0200200001000000090A0B0C0F000F07010072
:00000001FF
