:1000000012C024C023C022C021C020C01FC01EC0F7
:100010001DC01CC01BC01AC019C018C017C016C014
:1000200015C014C013C011241FBECFE5D4E0DEBF3D
:10003000CDBF10E0A0E6B0E0E4E6F1E002C005903C
:100040000D92A237B107D9F773D08AC0D9CF8CE20D
:1000500087BB81ED8DB9089580E187BB81EC8DB9B7
:100060000895779BFECF8FB10895C2988FB9779B83
:10007000FECF613009F4C29A0895CF93C62F60E095
:10008000F4DF61E08C2FCF91F0CFCF92DF92EF922F
:10009000FF920F931F93CF93DF93CDB7DEB72A97CD
:1000A0000FB6F894DEBF0FBECDBFD1DF85E0E8E626
:1000B000F0E0DE01169601900D928A95E1F785E059
:1000C000EDE6F0E0DE01119601900D928A95E1F7E0
:1000D0008E010F5F1F4F7E0186E0E80EF11C670165
:1000E000F80161918F01F70181917F01C6DF0C1545
:1000F0001D05B1F72A960FB6F894DEBF0FBECDBF2F
:10010000DF91CF911F910F91FF90EF90DF90CF90F3
:1001100008951F93CF93DF93EC0110E01F5F699167
:10012000812FABDF1830D1F7DF91CF911F91089568
:10013000CF93DF93CDB7DEB728970FB6F894DEBF25
:100140000FBECDBFA2DF88E0E0E6F0E0DE01119651
:1001500001900D928A95E1F7CE010196DADFFFCF8B
:04016000F894FFCF41
:100164000102040810204080090A0B0C0F000F073D
:02017400010088
:00000001FF
